:020000040001F9
:10800000983C0020158101002F8101003181010081
:108010000000000000000000000000000000000060
:10802000000000000000000000000000338101009B
:1080300000000000000000003581010037810100D0
:108040003981010039810100A589010039810100D0
:1080500039810100000000009D820100398101008A
:108060003981010039810100398101003981010024
:108070003981010039810100398101003981010014
:1080800039810100A1850100398101003981010098
:108090002D890100398101003589010039810100F4
:1080A000398101003981010000000000000000005A
:1080B00000000000000000000000000000000000C0
:1080C0000348854600F0ACF80048004749C001006D
:1080D000983C0020401E00BF00BF00BF00BF00BF93
:1080E00000BF00BF00BF00BF00BF00BF00BFF1D195
:1080F00070470000401E00BF00BF00BF00BF00BFB0
:1081000000BF00BF00BF00BF00BF00BF00BFF1D174
:10811000704700000321094802680A4302600848CA
:1081200002680A4302600748804707480047FEE7A5
:10813000FEE7FEE7FEE7FEE7FEE70000240500405D
:10814000540500406D890100C180010030B50B4627
:10815000014600202022012409E00D46D5409D4221
:1081600005D31D469540491B2546954040191546A7
:10817000521E002DF1DC30BD70B5002425460028CC
:1081800001DA01244042002901DA01254942FFF7C2
:10819000DDFFAC4200D04042002C00D0494270BD0F
:1081A00010B5431A934209D28318881803E0401E81
:1081B00001785B1E1970521EF9D210BD03460B43A5
:1081C0009B0703D009E008C9121F08C0042AFAD28D
:1081D00003E00B780370401C491C521EF9D210BDFD
:1081E000D2B201E00270401C491EFBD2704700224F
:1081F000F6E710B513460A4604461946FFF7F0FFA6
:10820000204610BD30B504460020034600E05B1C4C
:10821000934203D2E05CCD5C401BF8D030BD00003F
:10822000064C0125064E05E0E36807CC2B430C3CC9
:1082300098471034B442F7D3FFF746FF54E10100EA
:1082400074E1010070B58C180578401C6B075B0F5A
:1082500001D10378401C2A1106D10278401C03E0AA
:1082600006780E70401C491C5B1EF9D12B0705D403
:108270000023521E0DD40B70491CFAE70378401CF2
:10828000CB1A921C03E01D780D70491C5B1C521E1A
:10829000F9D5A142D8D3002070BD0000F0B587B059
:1082A000002600200690FF200130059001250024C3
:1082B00016E0059804F032F800280BD000BF5648AD
:1082C00040682840002805D0059804F01FF8304683
:1082D000284306466D000598001D80B20590641C79
:1082E000042CE6D3FF207D3004F018F800280AD0D3
:1082F000FF207D3004F00AF80120C007064300BFCC
:108300004648006906903007000F00282AD0012552
:10831000002425E02846304000281FD000BF4048F8
:10832000512109014018A10040581F2109020840AD
:10833000000A049000BF3A48512109014018A100E9
:108340004058032109040840000C0390204601F026
:108350001BFE074603990498B84700BF6D00641CD4
:10836000042CD7D3F00FC007002852D000244EE0D1
:108370002C480057401C002848D02A48005D049033
:10838000C021049888430746384601F005FE029054
:1083900001F0FAFD03900398002836D0C02104981C
:1083A0000840801102900120B840054600BF05201A
:1083B0000007072109024018B900405803210904A9
:1083C0000840000C019006982840002802D001982F
:1083D000022806D006982840002815D101980328C5
:1083E00012D1029803280BD10198022801D1032051
:1083F00000E0022000903846009903F05DFF00BFC6
:108400003846039A0299904700BF00BF641C042CB1
:10841000AED307B0F0BD000000630040000500507F
:10842000006000407027002010B54B689B000A6870
:108430001A438B681B021A438B891B041A430B696E
:108440005B001A4305231B07072424021B19840021
:108450001A5110BD01218140014AD16070470000CE
:108460000005005001218140014A916070470000E1
:1084700000050050C206D20E01219140014A116050
:108480007047000080E200E0C206D20E0121914058
:10849000014A11607047000000E100E0C206D20E00
:1084A00001219140014A11607047000000E200E0A4
:1084B00010B5002819DA1A4A03071B0F083B9B085E
:1084C0009B00D2588307DC0EFF23A3409A438B07FF
:1084D0001B0E8407E40EA3401A43114B0407240F1C
:1084E000083CA408A4001A5118E00E4A03231B02FA
:1084F000D21883089B00D2588307DC0EFF23A340C9
:108500009A438B071B0E8407E40EA3401A43054BC6
:10851000032424021B198408A4001A5110BD000072
:108520001CED00E000E100E010B5002819DA1A4A5D
:1085300003071B0F083B9B089B00D2588307DC0EE8
:10854000FF23A3409A438B071B0E8407E40EA3402E
:108550001A43114B0407240F083CA408A4001A5125
:1085600018E00E4A03231B02D21883089B00D2583E
:108570008307DC0EFF23A3409A438B071B0E84075F
:10858000E40EA3401A43054B032424021B1984085C
:10859000A4001A5110BD00001CED00E000E100E055
:1085A00010B500200749086000210648416081603D
:1085B000C1600020034940390860486005F03CFB79
:1085C00010BD00004011014010B500F083FA10BD4D
:1085D000F7B582B00446164600F07CFA18206043D6
:1085E00048494018007D8007800F02281ED01820BF
:1085F000604340180769182060434018C068381A63
:10860000451E002D04DA1820604340188068451983
:10861000AE420BDD182060433A494018007D8007C8
:10862000800F002801D105B0F0BD2E46002E01D1EB
:108630000020F8E70020019000BF18206043314976
:1086400040180769182060434018C068381A451E52
:10865000002D04DA1820604340188068451918205E
:108660006043284940188268182060434018C06859
:10867000101AA84201DD284609E01820604321496C
:1086800040188268182060434018C068101A0546D8
:10869000B54201DA284600E030460546182161431C
:1086A000184A89184A6818216143164BC918C968C5
:1086B00050182A460399FFF773FD0198401901905D
:1086C000039840190390761B182060430D49401809
:1086D000C0684219182060434018C26018206043E7
:1086E0004018C2681820604340188068824204D154
:1086F0000022182060434018C260002E9DD10198CE
:1087000091E70000282100200FB438B5044606A8E0
:1087100000906A462046059900F004F838BC08BC71
:1087200004B01847F7B59AB00D46144602A8159044
:1087300040201690002017901A9819900020189049
:1087400000BF2E786D1C002E00D1DCE0252E74D1E8
:10875000002700BF2E78232E12D02B2E0CD02D2ECA
:1087600002D0302E10D103E0012007436D1C0CE035
:10877000022007436D1C08E0042007436D1C04E041
:10878000082007436D1C00E001E000BFE2E7002085
:10879000129000BF2E78302E01DB392E00DD08E06C
:1087A0006D1C0A2112984843314630394018129006
:1087B000F0E700BF002013902E782E2E11D16D1CF3
:1087C00000BF2E78302E01DB392E00DD08E06D1C55
:1087D0000A21139848433146303940181390F0E786
:1087E00000BF2E7800BF6C2E01D0682E02D12E78EB
:1087F0006D1C00E000E0F6E700BF702E62D008DCE0
:10880000252E70D0582E38D0632E09D0642E6FD10B
:1088100014E0732E40D0752E1FD0782E68D12BE037
:108820002168081D2060086814901498C0B2019057
:1088300015A8019900F066FA5AE05CE02168081D6D
:108840002060086814901298019700900A2215A8D9
:10885000139B149900F03FF94AE02168081D20603D
:10886000086814901298019700900A2215A8139B8B
:10887000149900F0B7F93BE000BF2168081D2060A3
:1088800008681490129801970090102215A8139B65
:10889000149900F0A7F92BE02168081D20600868F2
:1088A000019000BF01980678401C0190002E00D175
:1088B00006E0314615A800F025FA18980028F1DAEC
:1088C00000BF15E02168081D206008681490002092
:1088D00008210B4610220091019015A8149900F070
:1088E00081F905E0FFE7252115A800F00BFA00BF8C
:1088F00000BF6D1C03E0314615A800F003FA18987C
:10890000002800DB1DE700BF189800280BDD179832
:10891000002804D002A9179A1A98FFF759FE179950
:1089200018984018189018981DB0F0BD10B505F0B3
:1089300097F810BD70B50C480068002810D00A48A0
:1089400000688047044600BF2546002D06D000BFC2
:1089500000221146284600F03FFB00BF00BF01E0A7
:1089600003F04CF970BD0000D820002010B503F0D2
:10897000D1F9002805D0074807494860C8130749BE
:10898000886103F0ABF9002802D001200449886017
:1089900010BD0000DFFF07C000050040006C004074
:1089A0000006004043488068002823D00020414949
:1089B0008860414880694149087041480078002832
:1089C00019D140480078002815D108460078FE28C3
:1089D00011D101203B49087005203B4908703748F8
:1089E00000783A493A4A1278885439480078401C4D
:1089F000374908705CE03348007801281DD13448BD
:108A00000078022812D12D48007805280ED12B4875
:108A100001782E482E4A127881542D480078401C47
:108A20002B49087002202749087041E0012028499D
:108A300008700020234908703AE022480078022894
:108A400030D11E4800782149214A127888542048A4
:108A5000007804280CD11C4800781849097840187F
:108A6000194908701A480078401C194908701FE01D
:108A7000174800781449097888420DD1012014491B
:108A8000087000200F4908700F4800780F490870DF
:108A900001200B4908700BE00D480078401C0C4980
:108AA000087005E001200A49087000200549087097
:108AB0007047000000210040002500400D210020EB
:108AC0000E2100200C2100200B2100206628002010
:108AD0000A2100207047FFB585B007460E460F9D5E
:108AE0000E9C002E01DA704200E030460390012017
:108AF000049007E007990398FFF728FB0390049878
:108B0000401C0490079903988842F3D2049908986E
:108B1000884201D908980490002C06D0002E03DB6F
:108B200004202840042800D1641E02202840002888
:108B300002D00898002816D0E807C00F002812D1EC
:108B4000002C10D008E02021384600F0DBF8F8684F
:108B5000002801DA09B0F0BD002C04D02046641EC4
:108B600004998842EFD8002E08DA76422D21384643
:108B700000F0C8F8F86800280CDAEBE70420284079
:108B8000042807D12B21384600F0BCF8F8680028EB
:108B900000DADFE702202840022818D1E807C00FDA
:108BA000002814D10898002811D1002C0FD007E01C
:108BB0003021384600F0A6F8F868002800DAC9E746
:108BC000002C04D02046641E04998842F0D80195F8
:108BD000009431463846089B079A00F003F800BF1E
:108BE000B8E70000FFB585B015461E460E9C01276C
:108BF000069803900120029007E029460398FFF7AA
:108C0000A5FA03900298401C02900398A842F4D25F
:108C10000298864200D902960F98C007C00F00281C
:108C20001FD1002C1DD002210F980840022804D12A
:108C3000002E02D13020019001E02020019009E0B7
:108C40000199059800F05EF80598C068002801DADF
:108C500009B0F0BD002C04D02046641E0299884261
:108C6000EED802E038466843074639460698FFF7D3
:108C70006DFAA84201D3012000E000203146761EA3
:108C8000012901DD012100E0002108430028E9D18C
:108C900000BF39460698FFF759FA049004987843C4
:108CA0000699081A0690164A0498115C059800F077
:108CB00029F80598C068002800DA06E029463846F9
:108CC000FFF744FA0746002FE3D100BF0F98C00713
:108CD000C00F002812D0002C10D008E020210598E9
:108CE00000F010F80598C068002800DAB0E7002C02
:108CF00004D02046641E02998842EFD800BFA7E73F
:108D000038E1010070B504460E46A568681C61682C
:108D1000814206DB20684655681CA060E068401C64
:108D2000E0606168A06888420DD1A268216820696E
:108D3000FFF74EFCA168884203D00020C043E060EA
:108D400001E00020A06070BD02E008C8121F08C149
:108D5000002AFAD170477047002001E001C1121FBC
:108D6000002AFBD17047F7B582B0044616460025AD
:108D7000378800203080606B00280CD0616B087849
:108D80003B463246039904F0A7F90546002D02D070
:108D9000284605B0F0BD206B00280AD03B4632467D
:108DA000206B039904F0B2FF0546002D01D0284640
:108DB000EFE72E20005D00280BD02E21085D3B46FA
:108DC0003246039903F039F80546002D01D02846B4
:108DD000DFE72D20005D002809D03A463146039890
:108DE00000F0C9FD0546002D01D02846D1E7A07846
:108DF000002809D03A463146039800F005FA0546A6
:108E0000002D01D02846C4E7E07800280BD0E17897
:108E100048B23B463246039902F0DEFB0546002D80
:108E200001D02846B5E7606800280CD000206168B2
:108E300008563B463246039904F0FAFF0546002DDA
:108E400001D02846A5E7208900280DDD019700966E
:108E50000622022120460830039B05F093F80546C0
:108E6000002D01D0284694E7208A00280DDD0197C7
:108E700000960722032120461030039B05F082F85C
:108E80000546002D01D0284683E7208B00280DDD04
:108E9000019700961522142120461830039B05F0F7
:108EA00071F80546002D01D0284672E7206A002897
:108EB0000AD03B463246206A039901F06FFA054614
:108EC000002D01D0284664E7606A00280AD03B469E
:108ED0003246606A039903F03BF90546002D01D044
:108EE000284656E72C20005D00280ADD3B46324626
:108EF0002046039904F062F90546002D01D028466A
:108F000047E7207800280AD03B463246204603999E
:108F100003F05AF90546002D01D0284639E72846C6
:108F200037E70146C87804221040002801D1072005
:108F300070470020FCE7000030B5A9B038211BA81D
:108F4000FFF755F9022118A801730021817306214A
:108F5000C173012110A881871B491BA841612421ED
:108F600001A8FFF744F90121684601747D20C00083
:108F70000590B4200690562168460185062181851A
:108F800012490C910AA8249038210DA8FFF72FF957
:108F9000012110A881800E49129100200D4B01AAD9
:108FA0000DA900901BA800F09BF9044600BF2546C0
:108FB000002D06D000BF00221146284600F00CF814
:108FC00000BF00BF29B030BD1220002004200020C7
:108FD0001620002045C3010000BF00BF00BF00BF36
:108FE00000BFBFF34F8F00BF00BF00BF0648074957
:108FF000C86000BF00BF00BFBFF34F8F00BF00BFFE
:1090000000BF00BF00BFFDE70400FA0500ED00E06F
:10901000F8B504460D461646034807683246294609
:109020002046B847F8BD00000C270020F8B50546DB
:109030000C4627780C21A068484306490E5806487C
:10904000006800902A463946204608302369B04718
:10905000F8BD000044280020AC20002010B50446D4
:109060000648007814225043044A121D81182046F5
:10907000FFF7DCFF042004F095F910BD78270020ED
:1090800010B503460C460D480068002801D10820A1
:1090900010BD002A01D10720FAE7002B01D10720DB
:1090A000F6E71868007C002801D00820F0E719686E
:1090B000002008744C744A6100BFE9E7B820002022
:1090C000FFB581B00E4614461F4620468107890F22
:1090D000002901D1012100E00021002902D107204F
:1090E00005B0F0BD002C04D100201C490860072009
:1090F000F6E703F033FF1A480760032019490870A8
:1091000016480460183400250CE0E900134A126880
:1091100088180021017041708670446018217143E5
:109120000C196D1C032DF0DB00200F4908600F495E
:1091300008700F4908701420FFF79CF903211420D0
:10914000FFF7B6F91420FFF79FF9019803F0DCFE52
:1091500003F0D4FE074908600020C1E7B8200020D2
:10916000D0200020B4200020BC200020CC200020F3
:10917000CD200020C0200020FEB504460D46174635
:10918000264612480068002801D10820FEBD002CA8
:1091900001D10820FAE7052D01D20720F6E7706912
:1091A000002801D10820F1E7707C012801D1284670
:1091B00000E00020029004F0BBFE009701902A46D8
:1091C0003146029B04F0ECFCE0E70000B8200020F0
:1091D00070B5044625460B480068002801D10820D8
:1091E00070BD002C02D06869002801D10820F7E783
:1091F0000020287404F09CFE0646294604F0FCFC7E
:10920000EEE70000B8200020F8B505460C461746EA
:109210002088001DB84201D90C20F8BD684679DFCE
:109220000646002E01D03046F7E703202188685417
:109230002088401C20801920218868542088401CE8
:109240002080208841196846008804F00CFE21889F
:10925000401820800020E0E7F3B593B00D461F21B1
:10926000129111911398002814D01398FFF759FE0A
:109270000446002C02D0204615B0F0BD12AA09A960
:109280001398FFF770FD0446002C01D02046F3E749
:1092900009AE02E0002600201290002D13D02846CF
:1092A00004F0E0F80446002C01D02046E4E711AABF
:1092B00001A92846FFF757FD0446002C01D020469F
:1092C000DAE701AF02E000270020119010A88088A3
:1092D000C3B210A80089C1B23A46304672DFCBE76C
:1092E000F8B504460F4615461E46002C01D0002D49
:1092F00001D10E20F8BD002048490870484806609A
:10930000484906980860242229464748FEF748FF46
:1093100000F04CF9454846490860464888603821C5
:109320004548FEF764FF207843490870A0788870AC
:10933000E078C87060784870626920694A610861A5
:109340000846E268A168C2608160E269A169C26101
:109350008161606A00281BD0384837494862384923
:109360008160606A00883449496A0880606A808840
:109370003149496A8880002005E0616A8968095C92
:109380002F4A1154401C2C49496A89888142F4D8DB
:10939000A06A002824D02B492B4881602649886286
:1093A00028492548806A8160A06A80882249896AA4
:1093B0008880A06A00882049896A0880002005E02A
:1093C000A16A8968095C1F4A1154401C1A49896ABC
:1093D00089888142F4D82C20015D17482030017320
:1093E000206A00280BD0194813490862206A408877
:1093F000096A4880206A00880F49096A0880606805
:10940000002804D012480C4948606068486039461A
:109410000948FFF721FF009000986BE754200020D7
:109420004C20002050200020D82400200C250020B3
:10943000FC2400202C250020A02400204C25002006
:109440005825002084250020782500205820002061
:109450005C20002070B504462088102804D0112814
:1094600006D0192869D11AE0A0883549088065E03E
:10947000002034490870A0883149098888420DD1FC
:10948000012000F09BF80546002D07D02E4800680B
:10949000002803D028462C49096888474EE0A07967
:1094A000002849D129480078012806D0022813D085
:1094B000032820D004283DD12FE0022000F07EF8C0
:1094C0000546002D07D020480068002803D0284614
:1094D0001D49096888472EE0032000F06FF8054613
:1094E000002D07D018480068002803D028461649E8
:1094F000096888471FE0032015490870042000F020
:109500005DF80546002D07D00F480068002803D0FD
:1095100028460D49096888470DE000200C4908706D
:109520000C480068002804D00846007809490968FA
:10953000884700E000BF00BF00E000BF00BF70BD73
:109540005E200020552000205020002054200020C4
:10955000482000204C20002070B504460025022C35
:1095600002D0032C18D100E000BF0D48007800287D
:1095700011D000200A4908700A48007800F01EF84F
:109580000546002D07D008480068002803D028466B
:1095900005490968884700E000BF00BF70BD0000B2
:1095A00040200020542000205020002010B507212A
:1095B0000148FEF71CFE10BD4120002030B587B0E9
:1095C0000546A248057000200090684603F0A0F808
:1095D0000446082C02D10020009004E0002C02D0A8
:1095E000204607B030BD0098002804D001209849DB
:1095F00008700020F5E7FFF7D9FF9648407800286B
:1096000003D092480078012807D09248807800283B
:1096100012D08E48007802280ED18F4800680028AA
:1096200007D001208D49087008208B4909688847B8
:1096300002E00020894908708448007801280BD195
:1096400084484078002804D0854803F016F80028A4
:1096500002D102207D4908707C48007802280BD195
:109660007C488078002804D07D4803F006F8002864
:1096700002D10320754908707648007B002806D186
:1096800072480078032802D104207049087071489C
:10969000007E002808D16D480078042804D10020FD
:1096A0006A4908706F4908706B480068002817D035
:1096B00066480078032803D06448007804280FD156
:1096C0006448007800280BD067480078002807D14C
:1096D00001206649087007205F490968884702E051
:1096E000002062490870182101A8FEF780FD0021C2
:1096F00068460171002002906846017300200490C2
:1097000052480078012806D0022811D0032823D01F
:10971000042879D150E05248401E02900121684649
:1097200001710021C182818201204E49087075E0DB
:109730004B48401E0290012168460171454800894E
:1097400081B26846C1824348808881B2684681827E
:1097500002204449087061E03E48808A81B2684630
:10976000C1823C48008A81B268468182404804F048
:1097700097FC00281CD037480078002818D03A48B9
:109780000078002814D102206946087338480490F4
:1097900004203849C87000213648FFF75DFD0446B3
:1097A000002C01D020461CE705202E49087002E05D
:1097B00003202C49087031E02648808B81B268462E
:1097C00081822448008C81B26846C182284804F016
:1097D00067FC00281DD01F480078002819D02248B7
:1097E0000078002815D102206946087320480490AB
:1097F00004202049C87000211E48FFF72DFD0446B3
:10980000002C02D02046ECE607E00620154908703F
:1098100002E004201349087000E000BF00BF0B48BD
:109820000078002806D001A873DF0446002C01D080
:109830002046D6E608480068002804D00948007889
:109840000549096888470020CBE600005420002025
:1098500040200020D82400204C2000205720002049
:1098600042200020482000205520002056200020C3
:10987000FC240020A024002070B505460C46002DD5
:1098800001D0002C00D170BD2088102804D01128F0
:1098900007D050280FD109E02146284602F0DAFD12
:1098A0000AE02146284602F003FE05E0214628464C
:1098B00002F05CFE00E000BF00BF00BFE3E7000075
:1098C00070B505461C2229461448FEF769FC0020A5
:1098D00013490870286800280BD00822114829680D
:1098E000FEF75EFC0F487ADF0446002C08D02046C5
:1098F00070BD0C487BDF0446002C01D02046F7E702
:109900000020C04308490880002008490870084A20
:1099100000210848FFF7B4FBEAE70000A425002077
:1099200074200020602000206A2000206820002091
:1099300095DE0100C8E0010010B50446208810281B
:1099400006D0112808D012280ED0502810D107E0D8
:10995000204602F061FD0CE0204602F087FD08E0A1
:10996000204602F0D5FD04E0204602F049FD00E06B
:1099700000BF00BF10BDFEB505460C461746208847
:109980000930B84201D90C20FEBD684671DF064699
:10999000002E01D03046F7E708202188685420883F
:1099A000401C20801B20218868542088401C208077
:1099B00021884819062200A90131FEF7F1FB208811
:1099C000801D208068460078002802D121886854D4
:1099D00002E00120218868542088401C208000205B
:1099E000D2E7000010B50446204600F0B5FF20463F
:1099F000FFF7A2FF21460B4800F01CF821460A4859
:109A0000FFF73AFF204602F0BBFC2046FFF722FD9D
:109A10002146064800F06EF82146054800F0BAF9E4
:109A200010BD0000AC210020942100201422002051
:109A3000FC21002070B505460C462088102804D073
:109A4000112807D050280FD109E02146284602F0FE
:109A500004FD0AE02146284602F02EFD05E02146DD
:109A6000284602F0ABFD00E000BF00BF70BD000063
:109A700070B586B004460E461D4B0FCB01AD0FC529
:109A8000002C01D0002E02D10E2006B070BD0020A7
:109A9000C043A0823068A0610020A075214601A8C3
:109AA00063DF0546002D01D02846EEE721786846A1
:109AB000817501218182A21C05A90120A0DF054634
:109AC000002D01D02846E0E73146204603F072FA27
:109AD0000546002D01D02846D7E73146204604F040
:109AE00038F90546002D01D02846CEE70020CCE706
:109AF00000E1010070B505460C46002D01D0002C98
:109B000000D170BD2088102804D0112807D050281B
:109B10000FD109E02146284602F0A2FC0AE02146C6
:109B2000284602F0CDFC05E02146284602F053FD10
:109B300000E000BF00BF00BFE3E7000037B584B01E
:109B400004460D46002C02D10E2007B030BDA08A7D
:109B50000F49884202D0A07D002801D10820F4E7F7
:109B60006846008B142801DD0720EEE700200090F6
:109B7000019002900390A18968460180039506A890
:109B80000290012168468170A08A6946A6DFDCE761
:109B9000FFFF0000F8B505460E4600243278214646
:109BA000641C6A5472782146641C6A5400BF022CFB
:109BB00001D1012000E000200746002F06D100BFA0
:109BC000002211461046FFF707FA00BF00BF2046EB
:109BD000F8BD00007CB500BF0023482223490920BE
:109BE00003F000FC054600BF2E46002E06D000BF45
:109BF000002211463046FFF7EFF900BF00BF00BF5B
:109C0000002000900190012069460870684660DFDE
:109C1000044600BF2546002D06D000BF0022114695
:109C20002846FFF7D9F900BF00BF114803F0CEFB6B
:109C3000044600BF2546002D06D000BF0022114675
:109C40002846FFF7C9F900BF00BF0A4803F0FEFB32
:109C5000044600BF2546002D06D000BF0022114655
:109C60002846FFF7B9F900BF00BF7CBD38240020AB
:109C7000E599010089D901007FB504460D46002C05
:109C800001D0002D02D10E2004B070BD0020029042
:109C9000286820600020C043608228792075FF205A
:109CA000207400BF0121684681733449818100BF5F
:109CB000221D03A90120A0DF0646002E01D0304658
:109CC000E2E72F4801F0DEFE00BF2E4800780009D1
:109CD0000001401C2B49087008460078F021884399
:109CE00010302849087000BF00BF084640780009BE
:109CF0000001487008464078F021884321494870A7
:109D000000BF21480B461E4A0621019400901B48C3
:109D10001E3803F065F80121684601721021417276
:109D20002721817200BF1948007800090001401CFA
:109D30001649087008460078F0218843103013490E
:109D4000087000BF00BF0846407800090001487055
:109D500008464078F02188430C49487000BF0C4801
:109D60000B4602AA0421019400900448453801F0F2
:109D7000E5FE2946204603F07BFC85E7E7FE000070
:109D8000F0200020FE200020F620002008210020E6
:109D90000021002070B505460C46002D01D0002C96
:109DA00000D170BD2088102804D0112807D0502879
:109DB0000FD109E02146284602F055FB0AE0214672
:109DC000284602F081FB05E02146284602F02DFCE2
:109DD00000E000BF00BF00BFE3E700007CB5044621
:109DE000A1786A460D4802F0ABFC0546002D13D160
:109DF00061781C2251430A4A88181C231A46694676
:109E000002F0DAFD0748807A800007490A582146A7
:109E100068469047054600BF7CBD000078200020C2
:109E2000C02600200C270020DCE0010010B5032034
:109E300000F07CF8044600BF002C03D0062C01D0B3
:109E4000204610BD00BF0020FBE70000F3B581B045
:109E500006460025002400E0641C002C04D1A0006C
:109E600029490858B042F7D1002C42D10298002865
:109E700025D0012802D002283AD133E06000201812
:109E800022490D5C600020184018407800280ED050
:109E90001F4800680A22504301461E4A1E480068B7
:109EA000FFF76AF90746002F01D11A4806706000D3
:109EB00020181649401880781849085518E01648A7
:109EC0000068FFF785F91548005D610061180F4AC9
:109ED00089188978884204D16000201811464018FA
:109EE000857805E06000201808494018457800BFD3
:109EF00000BF002D07D00A480068002803D028467C
:109F0000074909688847FEBDBCE0010038200020F1
:109F1000302000203B200020B8E001003C20002041
:109F200034200020014600207047000070B5024632
:109F3000002021E08400124D2C59A400114D641919
:109F40002168012484401440002C01D0032400E047
:109F50000024234603252D040C46AC4321461C0453
:109F600021430524240707252D0264198500044E8A
:109F70007559AD006151401C0028DBD0002070BD38
:109F8000BCE001000007005001468800014A10585B
:109F900070470000302700200146014840567047B6
:109FA0005027002010B502460023002003E0145C77
:109FB000E418E3B2401C8842F9DB184610BD0000EB
:109FC000F0B587B03E480078142148433C49091D4C
:109FD0004418E7680C21A06848433A4940180089B2
:109FE00006900C21A06848433649401840890590E6
:109FF0000C21A0684843334940184068049002F09F
:10A0000091FC014602903846FEF7A0F8002901D1E4
:10A01000012000E000200390059906984843049928
:10A0200046186088C019A188451800202649086094
:10A030000398002804D002F075FC618888420AD099
:10A040000398002804D0B54202D1A088002802D08D
:10A05000A06803280CD102F065FC01460290384646
:10A06000FEF774F819490860032003F09BF924E017
:10A0700002F058FC0190A188C8190199FEF766F812
:10A0800088081349086002F04DFC014601902846FB
:10A09000FEF75CF8002901D1012000E000200290C9
:10A0A000B54206D00298002803D1B1B2A8B203F09D
:10A0B00085FC022003F076F900BF07B0F0BD000078
:10A0C00078270020442800209C200020A020002089
:10A0D0009820002010B5084800781421484306490C
:10A0E000091D44182078042802D000F0B9F801E0D6
:10A0F00003F0D8FB10BD00007827002010B50F48F2
:10A100000078142148430D49091D441860880C4902
:10A1100008602078012804D0032805D0042809D13C
:10A1200005E003F0BFFB06E0FFF74AFF03E003F0A2
:10A13000A3FE00E000BF00BF10BD00007827002094
:10A14000AC20002010B503484078002801D0FFF76C
:10A15000D5FF10BD782700200023142141430C4A6D
:10A1600053541421414389184B8002231421414345
:10A1700089188B600023142141438918CB60142176
:10A18000414389180B611421414389188B80704722
:10A190007C270020FFB581B0064617461C48407852
:10A1A0000A2830D01A4800781949497844180A2CEE
:10A1B00000D30A3C142060431549091D0E54142095
:10A1C000604340180761142060434118029805C895
:10A1D000CA608860142161430D4A121D89180498D1
:10A1E00048801421614389180A988880101F40789C
:10A1F000401C111F487007480078002801D1FFF764
:10A200007DFF002500E00425284605B0F0BD0000D4
:10A21000782700209420002010B500200549087000
:10A220004870002403E02046FFF796FF641C0A2CC8
:10A23000F9D310BD7827002000B585B0012000902B
:10A2400000200190029003900120049069460D20A7
:10A25000FEF7EAF80D20FEF705F905B000BD000095
:10A2600010B50848007814225043064A121D811880
:10A270000020FEF7DBFE00F007F8002003F092F864
:10A2800010BD00007827002010B509490878FFF7B5
:10A2900063FF07484078401E05494870084600782B
:10A2A000401CC0B208700A2801D10020087010BDFF
:10A2B00078270020FEB51F480068002836D01D48CA
:10A2C0000068056802F01AFE01901B4804682146E8
:10A2D000019803F09FFBC61C18480078002801D1A4
:10A2E00002F01EFEAE4201D2284600E030460419BC
:10A2F0002402240A204602F0FBFD02F0FFFD00903C
:10A300000199009803F086FBC71C2046019903F0D1
:10A3100081FB874209D902F0F1FD074602F0E8FD12
:10A320002F20FDF7E7FE03F0D1FC01E002F016FE5E
:10A33000FEBD0000BC200020C0200020D420002052
:10A3400001460888062808DB08881922D2019042B5
:10A3500005DD0888104A904201D0072070474888E0
:10A36000062808DB48881922D201904205DD48887A
:10A37000094A904201D00720F0E70888064A904237
:10A3800008D04888904205D008884A88904201DD6C
:10A390000720E3E70020E1E7FFFF0000FFB581B001
:10A3A00006460D4614462088801D0499884202D92D
:10A3B0000C2005B0F0BD3046FFF7C2FF0746002F66
:10A3C00001D03846F5E70520218868542088401CD4
:10A3D00020801220218868542088401C20802288F8
:10A3E0005119308803F03FFD2188401820802288D1
:10A3F0005119708803F037FD218840182080002013
:10A40000D7E710B5044600BF002211462046FEF7EC
:10A41000E3FD00BF10BD000030B587B01C216846C9
:10A42000FDF7E5FE002000900520C00301900F20FD
:10A43000000402900321684601730021C181017468
:10A440000A4805900A4806906846FFF739FA04461C
:10A4500000BF2546002D06D000BF00221146284629
:10A46000FEF7BAFD00BF00BF07B030BDCDC301008D
:10A4700003A4010038B51F4801F01EFC002829D1B3
:10A480001D48007800280AD01C484069002820D0C8
:10A4900000200090194841696846884719E018482B
:10A4A0000078002802D11548456801E01348856806
:10A4B0000022294613480068FEF75EFE0446002C81
:10A4C00007D00E488069002803D00C4881692046D7
:10A4D00088470AE009484069002806D0012000901A
:10A4E000064841696846884700BF00200249087055
:10A4F00038BD00006C20002074200020A42500201E
:10A5000068200020C8E0010070B503460C46082012
:10A51000002115E00C254D430B4EAD19AD7A2540B9
:10A52000002D0CD0094DAB4205D00C254D43AD1983
:10A530002D899D4202D11160002003E00520491CB5
:10A540000029E7D000BF70BD00270020FFFF0000FA
:10A5500010B5044601210C2060430A4A801881721C
:10A56000891E0C20604380180181FF210C2060436C
:10A570008018C1720C21614388180721FDF737FE4E
:10A5800010BD00000027002010B514484068C10528
:10A59000C90D002920D00A46103A50B200280DDA21
:10A5A0000E4B1C330407240F083CA408A4001B59BD
:10A5B0008407E40EE3401B069B0F0BE0084B0324CB
:10A5C00024021B198408A4001B598407E40EE340ED
:10A5D0001B069B0FD8B210BD0420FCE700ED00E085
:10A5E00000E100E010B51C48006808210840002880
:10A5F0002FD11A480068401C1849086018480068A4
:10A60000002803D0042003F0B5F924E001F0B8FBE2
:10A61000002803D0022003F0ADF91CE011480068C7
:10A62000002813D00C480078C007C00F002809D1BB
:10A63000094800680121084307490860002003F029
:10A6400099F908E0032003F095F904E003F066F9B6
:10A6500001E003F073F910BDB0200020A02000201D
:10A66000982000209C20002010B50C48006808218C
:10A67000084000280FD1094800680221084000283E
:10A6800005D00648006801210843044908600220FB
:10A6900003F070F901E003F051F910BDB020002083
:10A6A000FEB504460E46A1786A46284802F048F8EE
:10A6B0000546002D49D160780C21484324494018B3
:10A6C000807A40210840402801D0022E01D1214F3C
:10A6D00004E0012E01D1204F00E0204FA0781C2281
:10A6E00050431F4A811800231C226846B84705467C
:10A6F000002D1AD1022E18D060780C21484314493D
:10A700004018807A4021884361780C225143104AD6
:10A710008918887260781C225043124A81181C23C1
:10A720001A466846B847054600BF022E0DD020786D
:10A730000C2148430C494018807A80000B490A5884
:10A74000214668469047054600BFFEBD78200020A0
:10A750000027002001CD0100D5CB010039D8010030
:10A76000FC250020C02600200C270020CCE00100A2
:10A77000F8B505460E461B4F00242EE01C20604312
:10A7800019494018807EFF2826D13078022814D03D
:10A790001C2060434018807E022188431C216143B5
:10A7A000114A891888761C2161438918084610309F
:10A7B00007223146FDF7F4FC0BE01C2060430A49F8
:10A7C0004018807E410849001C206043064A8018DA
:10A7D00081762C70002702E0641C072CCED300BFCA
:10A7E0003846F8BD43800000FC250020F8B505463A
:10A7F0000E4617460520009000241BE0002D06D1D0
:10A800001C2060430E494018008BB8420DD0002D2B
:10A810000FD01C2161430A4A8918084610300722CC
:10A820002946FDF7EFFC002803D13460002000909A
:10A8300002E0641C072CE1D300BF0098F8BD0000C3
:10A84000FC2500207CB50546A9B26A46084801F0FF
:10A8500077FF0446002C09D17421684601F0C2FF3D
:10A860000446002C02D1284601F014FF20467CBD8E
:10A8700078200020F8B506460F46144600BF25464E
:10A88000002D06D000BF002211462846FEF7A4FB8B
:10A8900000BF00BF0020F8BD7FB50546039502F05C
:10A8A00047F8044600BF2646002E06D000BF00220F
:10A8B00011463046FEF790FB00BF00BF03A800F032
:10A8C00075FB044600BF2646002E06D000BF0022BE
:10A8D00011463046FEF780FB00BF00BF052101A8EE
:10A8E0000130FDF784FC6846407941084900491C65
:10A8F00068464171407902218843014668464171AA
:10A9000040791C21884301460C31684641714079E9
:10A910002021884301466846417107218171102139
:10A92000C1710B48009001216846017169460948D0
:10A9300000F0E2FC044600BF2646002E06D000BF11
:10A94000002211463046FEF747FB00BF00BF7FBD27
:10A9500075A8010000200020F0B58FB00446FF204C
:10A960000D9000260020079000BFFE4800780028C8
:10A9700001D10FB0F0BD00BF00BFFB480068002848
:10A9800000D1F6E700BF0CA800F002FB054600BFAF
:10A990002F46002F06D000BF002211463846FEF792
:10A9A0001BFB00BF00BF002008900025201D0A905F
:10A9B0002A2168468185FF2108A88174002101743D
:10A9C00000200E902088102813D0A0880EAA022103
:10A9D000FFF79AFD0546002D0BD10C210E98484338
:10A9E000E2494018C17A08A881740E98C1B208A83B
:10A9F0004174208817287BD008DC10280DD011283E
:10AA00007CD0132876D0142875D1B5E0182873D0DF
:10AA10001C2872D05228F7D180E20EAF3A460121AD
:10AA2000D348FFF771FD00900098002807D102215C
:10AA30000C2238685043CD4A8018817201E004200E
:10AA4000009000980546002D51D10126112108A83B
:10AA500001710E98C1B208A84174A1880C220E9809
:10AA60005043C24A8018018102210C220E985043A3
:10AA7000BE4A801881720C220E995143BB4A881835
:10AA80000722A11DFDF78CFB207D304000280AD055
:10AA9000207D4008B749085CFF280AD0207D400887
:10AAA000085C0D9005E0B24A0DA9A01DFFF79EFEBF
:10AAB0000546002D1BD10D98C1B20C220E985043B3
:10AAC000AA4A8018C1720C210E98484311464018BA
:10AAD000807A082108430C220E995143A34A891811
:10AAE000887208A90D9888740CA8FFF777F924E2FA
:10AAF000FAE003E085E01FE2ADE118E20C210E98D8
:10AB000048439A494018807A022188430C220E99C2
:10AB10005143964A891888720C210E984843114671
:10AB20004018807A0821084008280ED10C210E9880
:10AB3000484311464018807A8021084080280FD170
:10AB400000210CA8FFF7ACFD0AE008A8807CFF28D4
:10AB500006D008A9887C01F09DFDFF2008A9887413
:10AB600010210C220E985043804A801881720126D1
:10AB7000122008A90871E0E10C210E9848437B4996
:10AB80004018C07AFF2823D1E2890DA90020FFF7E1
:10AB90002DFE0546002D1BD10D98C1B20C220E983A
:10ABA0005043724A8018C1720C210E9848431146D6
:10ABB0004018807A082108430C220E9951436B4AB1
:10ABC0008918887208A90D9888740CA8FFF706F9EF
:10ABD0000C210E98484365494018C07AFF2805D0DB
:10ABE0001C210E9848436449401807901C230E9975
:10ABF0005943624BCA18A0880023079982DF054693
:10AC00009BE1132008A908710C210E98484357496D
:10AC10004018807A042108430C220E995143534A6C
:10AC20008918887201260C210E9848431146401855
:10AC3000C07AFF2819D10C220E9850430A46811879
:10AC40000DA8FFF795FD0546002D0BD108A90D981D
:10AC500088740D98C1B20C220E985043434A801854
:10AC6000C1721DE0089501261AE0162008A9087196
:10AC700024220E995143424A8918084608301A2165
:10AC8000FDF7B5FA0C210E98484338494018807AF0
:10AC9000402108430C220E995143344A8918887286
:10ACA000002004900C210E98484330494018C07A87
:10ACB0001C214843314941180591002106911C216E
:10ACC0000E9848432C4940180190002002900390B0
:10ACD000A08801AB244A121D00217FDF0546002D0C
:10ACE00001D00895002628E11F48407A400840001E
:10ACF0001D4948720C210E9848431C494018807A1F
:10AD0000042188430C220E995143184A89188872ED
:10AD1000142008A908710126A07900280AD00C2265
:10AD20000E995143114A8918C87AFFF78BFDA07913
:10AD300008908FE0E0794007C00F00287ED008A877
:10AD4000807CFF287AD00C210E9848430749401890
:10AD5000807A082108430C220E995143034A89182E
:10AD600088720FE0842000200C270020002700209C
:10AD7000FFFF000085200020C0260020FC250020C9
:10AD8000DC260020E07A8007C00F00280FD008A83A
:10AD9000807C1C21484377494018807E4108490047
:10ADA00008A8807C1C225043724A801881760C21AE
:10ADB0000E98484370494018C07AFF284AD00C21A9
:10ADC0000E9848436C49085C022820D00C230E9A48
:10ADD0005A430B46D11808AA927C1C235A43654B50
:10ADE000D218104610300722FDF7DAF908A8807C47
:10ADF0001C2148435F494018807E0221884308A9EE
:10AE0000897C1C2251435B4A891888761EE01C21EC
:10AE10000E98484359494018418A08A8807C1C2252
:10AE20005043544A8018018308A8807C1C21484361
:10AE300011464018807E4108490000E00AE008A859
:10AE4000807C1C2250434B4A8018817601210CA83B
:10AE5000FFF726FC71E0A079000901283DD1A07917
:10AE60000007000F012838D10C210E9848434249B1
:10AE70004018807A0821084008282ED124220E99F3
:10AE800051433F4A891808181A21FDF7B0F91620D6
:10AE900008A908710C210E98484337494018807A58
:10AEA000202108430C220E995143334A8918887295
:10AEB0000C210E98484311464018807A40210843DF
:10AEC0000C220E9951432C4A891888722D48407AD9
:10AED000022108432B4948721CE00C210E9848437C
:10AEE00025494018807A802108430C220E9951434D
:10AEF000214A89188872152008A908712148807A8A
:10AF00008000214A11580CA888470546002D01D021
:10AF10001E4808900020089001260EE01948807A0B
:10AF20008000194A11580CA88847089005E01320A2
:10AF300008A90871012600E000BF00BF002E16D04E
:10AF400009A90CA8089AFEF763F808A80079122846
:10AF50000DD100BF0C210E98484307494018807A54
:10AF6000012802D00E98FFF7F3FA00BF00BF00BF20
:10AF7000FFE40000FC25002000270020C026002060
:10AF8000DC2600200C270020ECE0010041800000BE
:10AF90000146002901D104487047FF20087048701D
:10AFA0008870C8700020F7E70E8000007FB5064665
:10AFB000002E02D1374804B070BD00240FE000BF5E
:10AFC00000210C206043344A11500C20604380184B
:10AFD00041720C2060438018817200BF641C002CF9
:10AFE000EDD0002403E02046FFF7B2FA641C002CE9
:10AFF000F9D024212948FDF7FAF8002406E020467C
:10B0000001F048FBFF2026490855641C072CF6D3A5
:10B010007421684681810721C1812248029022491A
:10B0200002A801F047FD0546002D30D101201F493F
:10B0300008703078002821D100241CE0A1B26A46B3
:10B04000194801F07DFB0546002D0FD11C216143FD
:10B05000174A881800231C22694601F0ADFC0546FA
:10B06000002D07D000201149087006E000200F498C
:10B07000087002E0641C072CE0D308E06A4690895F
:10B08000D289504381B2084801F0ACFB05462846FE
:10B0900091E700000E8000000C270020DC26002035
:10B0A00085200020B5B001007820002084200020F9
:10B0B000FC250020FFB591B01D4600BF8448006804
:10B0C000002801D115B0F0BD00BF1A98742800D92E
:10B0D000F8E7012007900DA8FFF75AFF064600BFCA
:10B0E0003746002F06D000BF002211463846FDF734
:10B0F00073FF00BF00BF002108A8017501760C9501
:10B100001A980B90002712E0B9B208AA714801F012
:10B1100017FB0646002E09D1082208A91198FDF751
:10B1200071F8002802D108A98F7502E07F1C072F53
:10B13000EAD300BF08A8807DFF2877D012980328A3
:10B140000AD11A98742803D1202008A9087698E01B
:10B15000402008A9087694E05F49681A1C21FCF792
:10B16000F5FF0446072C1DD20AA80F90139800285B
:10B1700010D108A9887D01218140584A12681140E8
:10B18000002901D0012100E00021002902D1002086
:10B19000079076E008A9887D02F072FE202008A9B9
:10B1A00008766EE04E49681A1C21FCF7CFFF044672
:10B1B000002C1AD10AA80F90202108A80176447506
:10B1C00000200490474905911C20604344494018E1
:10B1D000019008A8807D1C2148433F4940180290F7
:10B1E00001A80C9018200B904BE03F49681A2421CD
:10B1F000FCF7ACFF0446002C19D1302108A80176D9
:10B2000044750121C1750C20604338494018807A8B
:10B2100002210840022834D008A9497D2422514344
:10B22000314A88182421FCF7E2FF2AE04DE0002093
:10B230000790402008A908762D48854204D10320B4
:10B240001290012007901CE008A8807D8000294909
:10B250000858A84215D1012007900AA80F90002095
:10B260000CE008A98A7D0C214143204BC918C97AFA
:10B270008A4202D108AA507502E0401C0028F0D092
:10B2800000BF0798012820D11298032806D108A9E9
:10B29000087E0321084308A908760FE012980228C7
:10B2A00006D108A9087E0121084308A9087605E00F
:10B2B00008A9087E0221084308A908760AA80F9069
:10B2C0000EA90DA8139AFDF7A3FE00BFFAE6000031
:10B2D0000C27002078200020FC2500208020002062
:10B2E000C026002018270020DC2600200027002090
:10B2F000FCE00100E025002070B505460C4600BFCB
:10B3000029480078002801D1284870BD00BF002DD1
:10B3100002D12648801DF8E7002C02D12348801D69
:10B32000F3E72068002802D12048801DEDE720487F
:10B330000068002834D11E49206808600522611D7C
:10B340001B48001DFCF72CFF20791949887208461C
:10B35000007A4008400008720846007A02218843BB
:10B36000801C134908720846007A0421884310495A
:10B3700008720846C07940084000401CC871084661
:10B38000C07902218843801C0949C8710846C079E8
:10B39000042188430649C87100202870002601E076
:10B3A000024E361F3046B0E784200020088000009F
:10B3B0000C270020014614480078144A1278904265
:10B3C0001DD011480078401C0F4A107010460078BC
:10B3D000022801D1002010700B48007880000C4A30
:10B3E000105808600B4A086812688018094A1060F3
:10B3F000104600680002000A10600120704700201B
:10B40000086000BFFAE70000CC200020CD2000201B
:10B41000C4200020C020002010B50D48006808217D
:10B420000840002810D10B480068401C09490860FA
:10B4300000F0A6FC002802D1FEF74CFE06E006480C
:10B44000007801F0AFFF01E000F03CFE10BD00000D
:10B45000B0200020A02000209420002000B587B05C
:10B460000B20009000200290092001902A480590AE
:10B470000020069001202949C86329490098C86026
:10B48000019848610298012812D1039888600498B5
:10B49000086123484030C06A0299884320494031FE
:10B4A000C8620846C06A029908431D494031C86213
:10B4B0001B49059848621A484030C06A06994900FD
:10B4C000884317494031C8620846C06A0699490056
:10B4D000084313494031C862042011490860012023
:10B4E00010498860086000200F498860401E0F499D
:10B4F0008860042048600220012181400C4A1160CC
:10B5000000BF0321FDF710F8022001218140094A04
:10B51000116000BF07B000BD00E0D701C02F0040A0
:10B520000025004000200040002100400023004092
:10B5300080E200E000E100E070B504460D460D2019
:10B54000FCF788FF022000F0A9FE00200BE0215C40
:10B55000084AD16100BF0849C9690129FBD100210E
:10B56000054AD161401CA842F1DB0D20FCF77AFFAF
:10B5700070BD00000025004000210040F0B50346EA
:10B58000002420E0134E306806689E4203D9066806
:10B59000F61A06601BE006689B1B06683419002635
:10B5A00006600C4E35680B4FC6693E60C668002EBB
:10B5B00008D00E193602360A4660C66886601668DC
:10B5C000C661156000BF034800680028DAD100BFDB
:10B5D000F0BD0000BC20002030B504461088C01C1F
:10B5E000984201D90C2030BD02201588485510889A
:10B5F000401C10800120158848551088401C108080
:10B6000015884C551088401C10800020EBE7000086
:10B6100010B50446002C02D0112C08D100E00AE03D
:10B6200006480068082108430449086003E02046F2
:10B63000FDF714FD00BF00BF10BD0000B0200020CA
:10B6400010B50C480068401C0A49086003280DD05A
:10B6500009480078022804D00748007801F0A2FECB
:10B6600007E00648007802F085F902E00D20FDF7BA
:10B67000F5FC10BDA420002094200020952000207F
:10B6800010B50A480078012804D0022808D0032801
:10B6900009D102E002F00CF906E0FFF7BDFE03E07D
:10B6A00002F05CF900E000BF00BF10BD9420002054
:10B6B00070B50446204628DF0546FFF7A9FF70BD98
:10B6C000F8B504460D46164632462946204629DF7F
:10B6D0000746FFF79DFFF8BD10B5002823D0124B99
:10B6E0000022001F196803E0814203D80A46496816
:10B6F0000029F9D1002A0AD01368841A9C4204D187
:10B70000006818181060104602E0506000E01860F1
:10B71000002907D002680B1A934203D10B68D21894
:10B7200002604968416010BD8C2100203EB500BF19
:10B730006846007801090901491C009168460078B3
:10B74000F02188431030009000BF092216A16846FE
:10B750007CDF044600BF2546002D06D000BF002236
:10B7600011462846FDF738FC00BF00BF00200190BD
:10B770000290502168468180A021C1800021018172
:10B78000FF219131418101A87ADF044600BF25469F
:10B79000002D06D000BF002211462846FDF71CFCF4
:10B7A00000BF00BF3EBD0000657269635F64656DE8
:10B7B0006F000000014600207047024600207047DD
:10B7C0000246002070470000F8B50546002700201B
:10B7D0000090002668782421484333494018406887
:10B7E000002827D068780C21484330494018807AD7
:10B7F0008021084080281DD168780C2148432B49BE
:10B800004018807A40210840402813D068782421CD
:10B81000484325494018074608376878242148439B
:10B8200021494018808880B20090687824214843DC
:10B830001D490E5869780C2251431C4A8918088901
:10B8400033463946009AA9DF04460B2C0BD101265A
:10B8500069780C225143154A8918088933463946BC
:10B86000009AA9DF0446002C00D0114C012E18D1FB
:10B8700069780C2251430D4A891808890D4A0C2118
:10B88000A7DF0446002C0CD00B48844208D0082CBB
:10B8900006D0801C844203D0112C01D0002400E08B
:10B8A000034C2046F8BD0000DC26002000270020C5
:10B8B00041800000FFFF00000230000070B5054627
:10B8C0000C466178242251430D4A881838232422DB
:10B8D000294601F071F80646002E0FD16078242128
:10B8E0004843074940184068401C002806D1002101
:10B8F000607824225043024A80184160304670BD6F
:10B90000DC260020F3B589B00C4603271A200890E6
:10B9100061780C2251432E4A891808893B4608AAAF
:10B9200001A9AADF0646002E4FD161782422514397
:10B93000284A89180846083069460A8C01A9FCF78C
:10B9400061FC002812D160780C214843204940183E
:10B95000807A02210840022837D06178242251439E
:10B960001C4A88182421FCF742FC2EE06078242130
:10B970004843184940184068002801D0164D00E09F
:10B98000164D60782421484312490F506946098CAE
:10B990006078242250430F4A801841606178242245
:10B9A00051430C4A89180846083069460A8C01A997
:10B9B000FCF7F6FB607824225043064A81183823AE
:10B9C00024220998A847064600BF00200BB0F0BD0E
:10B9D00000270020DC26002001CD0100D5CB01008E
:10B9E00070B505462846FFF7EFFE0446002C02D14D
:10B9F00000BF00BF0446204670BD70B505460E4628
:10BA000031462846FFF75AFF0446002C02D100BFFA
:10BA100000BF0446204670BD70B505460E4631464F
:10BA20002846FFF76FFF0446002C02D100BF00BF7D
:10BA30000446204670BDF8B50446072000F052FBCE
:10BA40000090009871DF054600BF2F46002F06D0FA
:10BA500000BF002211463846FDF7BEFA00BF00BF06
:10BA60000098461C062005E0411EC8B2315C052244
:10BA7000121AA1540028F7DC0098FFF72DFE0020D1
:10BA80000090F8BDF8B50446072000F02BFB0546F2
:10BA9000284671DF07466E1C062005E0411EC8B22D
:10BAA000315C0522121AA1540028F7DC2846FFF762
:10BAB00013FE0025227802A10020FCF725FEF8BD28
:10BAC0006D61633D307825780000000010B518489E
:10BAD000006808210840002826D100F07DF90028E0
:10BAE0000CD0002013490860114800680121084368
:10BAF0000F490860002001F03DFF17E000F040F919
:10BB0000002806D000200B490860022001F032FF17
:10BB10000CE009480068002803D0032001F02AFF48
:10BB200004E001F0FBFE01E001F008FF10BD0000A1
:10BB3000B0200020982000209C200020F0B58FB07D
:10BB400006460C4617461D46642000901C2107A897
:10BB5000FCF74DFB6846007F082188434118684682
:10BB60000177007F20218843411868460177007FD4
:10BB700002218843801C69460877002008900A90BB
:10BB80000B900C900D9000BF012108A881766846AB
:10BB9000068700BF00200190297868460171697806
:10BBA0004171807906218843811C684681718079C2
:10BBB00008218843014668468171807910218843B5
:10BBC0000146684681718079410849006846817163
:10BBD000142102A8FCF70BFB0EA8029001A8039009
:10BBE00068460482002141828482069715998888DC
:10BBF00002AA07A9149BA2DF0FB0F0BDF8B529482F
:10BC00000078002800D1F8BD27480068002801D13D
:10BC1000012000E00020054624480068002801D1EA
:10BC2000012000E00020064600BF002D14D1684628
:10BC300051DF0446052C01D101250CE0002C06D073
:10BC400000BF002211462046FDF7C6F903E0164961
:10BC500000980968884700BF002E1AD11448008850
:10BC6000009069461348006861DF0446052C01D145
:10BC700001260DE0002C06D000BF00221146204610
:10BC8000FDF7AAF904E00B480068084909688847ED
:10BC900000BF002D02D0002E00D000E0C5E700BF9D
:10BCA00000BFB0E7DC200020EC200020E8200020CE
:10BCB000E4200020E020002001464888064A12883F
:10BCC000904206DB4888044A5288904201DC0120F9
:10BCD00070470020FCE70000602000200C48008C2A
:10BCE000C0B2012812D10A48808C0007000F00283A
:10BCF0000CD10748806AF0210840402806D104484A
:10BD0000C06A0840002801D1012070470020FCE7EC
:10BD1000C00F00F01948008CC0B201282CD1174880
:10BD2000808C0007000F002826D11448806AF0217B
:10BD30000840002806D11148C06A0840002801D1F7
:10BD4000012070470D48806AF0210840102806D174
:10BD50000A48C06A0840002801D10120F1E70748DD
:10BD6000806AF0210840302806D10448C06A0840A3
:10BD7000002801D10120E4E70020E2E7C00F00F035
:10BD8000F8B512480078142148431049091D451898
:10BD9000EF6800F0C7FD00906988C919AA88891862
:10BDA000481E0099FCF7D2F9064609480068B042DF
:10BDB00007D307480068B04205D10648006800284C
:10BDC00001D1012400E000242046F8BD782700209E
:10BDD000A02000209C200020F8B5104800781421F5
:10BDE00048430E49091D4518EE6800F09BFD009080
:10BDF00069888919AA888918481E0099FCF7A6F94C
:10BE0000074607480068002805D006480068B84281
:10BE100001D1012400E000242046F8BD782700204D
:10BE20009C200020A020002001468807800F0028C9
:10BE300001D1012070470020FCE730B5044610888E
:10BE4000C01C984201D90C2030BD022015884855ED
:10BE50001088401C10801C20158848551088401CF4
:10BE60001080012C06D0022C08D0032C0AD0042C00
:10BE700010D10BE00020158848550DE001201588F1
:10BE8000485509E002201588485505E0032015882B
:10BE9000485501E00720D7E700BF1088401C1080FC
:10BEA0000020D1E7F8B521480068009020480678C6
:10BEB0002EE0F0001F4909684418257824E0182076
:10BEC000684361680F18681CC5B2A078A84200D109
:10BED00000253878022802D0032812D103E07868C0
:10BEE00001F026FE0EE007E0104908680021017409
:10BEF0000E4AC169116000BF0C4800680028F3D1E8
:10BF000000E000BF00BF00BF6078A842D7D100BFEB
:10BF10003046711ECEB20028CBD10448016800988B
:10BF2000814201D00120F8BD0020FCE7BC200020A8
:10BF3000B4200020B8200020FEB506463C4800682A
:10BF400001903C480078009063E00098C0003A49B6
:10BF50000968451856E0002E02D03446E66924E010
:10BF60002978182359436A6850182978491C297080
:10BF70002978AA78914201D100212970446801787A
:10BF8000012902D1217C002900D03BE08168616059
:10BF9000C168A1600169E1604169A161274909782F
:10BFA000002901D00021616000BF2549606809684F
:10BFB000401A0002000A2349884208D220496068DA
:10BFC000096801F027FDA168401820600FE01C48B7
:10BFD0006168006801F01EFD0746A068B84203D9F9
:10BFE000A068C01B206001E00020206000BF00208E
:10BFF0006060A060012020740020E061204601F014
:10C0000061FD00BF002EA6D1287869788842A2D1B0
:10C0100000BF0098411EC9B20091002895D1044884
:10C0200001680198814201D00120FEBD0020FCE79B
:10C03000BC200020B4200020B8200020D520002003
:10C04000C0200020FFFF7F00FCF7BEFAFFF706FAD2
:10C05000FEF7F2F801F040FEFDF7BCFD1648FFF7D1
:10C06000EAFC3046FEF718FCFFF760FB01F0F2F83F
:10C07000FCF762FFFEF7D0F90320FDF79FFA0446B4
:10C0800000BF2546002D06D000BF002211462846DD
:10C09000FCF7A2FF00BF00BF00BF084800780128DE
:10C0A00006D1002005490870054800F0EDFEF4E7D0
:10C0B00000F01EFBF1E70000042000200E2100200C
:10C0C0006628002010B50548006808218843034908
:10C0D00008600348007801F065F910BDB020002029
:10C0E00094200020F0B50B30C108C900144F002681
:10C0F000144A0FE003688B420BD38B4205D95C1ABC
:10C100004318456830C3083B00E04368136002C031
:10C1100004E0021D10680028ECD13046002803D14D
:10C120003868002801D00020F0BD064A064810609B
:10C13000064A121AD208D20044C001203860D7E75C
:10C14000902100208C2100209C2C0020983400207D
:10C15000FFB581B005460E461446A888871C208886
:10C16000801CC1190498814202D90C2005B0F0BD91
:10C17000FE2F01D90C20F9E7781C21887054208803
:10C18000401C2080FF20218870542088401C208083
:10C1900022889119288801F066FE218840182080A5
:10C1A000A88800280EDDA868002801D10720DDE757
:10C1B000AA8823889819A968FBF7F2FF2088A98824
:10C1C000401820800020D1E7FFB583B005460F4618
:10C1D00014462878012805D16878002802D1072064
:10C1E00007B0F0BD2088801C0699884209D82878BD
:10C1F000012808D12088801C69784118069881425E
:10C2000001D90C20ECE721880698401A801E86B2DE
:10C2100001962188891CC81901A97DDF0290029826
:10C22000002801D00298DBE72878022806D168466A
:10C230008088B04202DC092000900BE008200090CA
:10C240002878012805D16878B04202DC687801902E
:10C2500000E0019668468088FE2801D90C20BFE7DF
:10C2600068468088401C218878542088401C2080A3
:10C270002188009878542088401C208021886846B6
:10C280008088081820800020AAE701460020704717
:10C2900002460020704702460020704701B505E0C5
:10C2A0000098401E00900348FBF714FF00980028F8
:10C2B000F6D108BDE703000010B5052212070723D9
:10C2C0001B02D2188300D25803231B049A43052370
:10C2D0001B07072424021B1984001A510522120788
:10C2E00007231B02D2188300D2580B041A430523DC
:10C2F0001B07072424021B1984001A5110BD0000DB
:10C3000001460148081870470060004010B5044617
:10C310002046FFF7F5FF0021016010BD10B504466F
:10C320002046FFF7EDFF0068012800D110BD002076
:10C33000FCE770B506460C46154629462046FFF731
:10C34000FBF870BD70B50546002D12D0032D13D13A
:10C350000220FDF7E7FD044600BF2646002E06D06A
:10C3600000BF002211463046FCF736FE00BF00BF7A
:10C3700003E000F0E7FF00E000BF00BF70BD000079
:10C3800070B505462888102802D0112819D113E06D
:10C390000720FDF7C7FD044600BF2646002E06D045
:10C3A00000BF002211463046FCF716FE00BF00BF5A
:10C3B000A8880549088005E00020C043024908809C
:10C3C00000E000BF00BF70BD0220002070B5054630
:10C3D0002878002810D13B210848008876DF0446E1
:10C3E00000BF2646002E06D000BF00221146304670
:10C3F000FCF7F2FD00BF00BF70BD0000022000206E
:10C4000010B504460822A11D0248FBF7C9FEFEF73D
:10C4100031F810BD6C20002010B50446A0880949F1
:10C4200008800822214616310748FBF7B9FE002094
:10C43000064908700648C089002801D1FEF71AF89D
:10C4400010BD00006A2000206C2000206820002021
:10C45000A42500208A88428270478A880284704717
:10C460008A88828270478A884282704770B5054602
:10C470000020C0430A49088000200A4908700A4881
:10C480000068FCF7A5FE0446002C07D00748806929
:10C49000002803D0054881692046884770BD000008
:10C4A0006A20002068200020C8E00100A4250020A8
:10C4B0000022D243428270470022D2430284704756
:10C4C0000022D243828270470022D24342827047C8
:10C4D00038B505460C46208B022817D1286800285D
:10C4E00014D000BF00BFA17EE27E120211430846B5
:10C4F000C107C90F002902D00020009001E00120EF
:10C500000090694628462A68904700BF38BD000061
:10C5100070B50546AC1D20881249C989884220D1D2
:10C52000208B02281DD100BF00BFA17EE27E120237
:10C5300011430846C107C90F002902D0FDF79AFF31
:10C540000FE009480068FCF743FE0646002E07D0BE
:10C5500004488069002803D0024881693046884732
:10C5600000BF70BDA4250020C8E00100F8B5044656
:10C570000E46207D002820D0B51D29886089814283
:10C580001AD1288B022817D12068002814D000BFA8
:10C5900000BFA97EEA7E120211430846C107C90FF7
:10C5A000002902D00020009001E00120009069469F
:10C5B00020462268904700BF00BFF8BD70B5044612
:10C5C0000D46AE1D3188A089814203D131462046F7
:10C5D000FFF77EFF70BD70B504460E46B51D298875
:10C5E000208A814213D1288B022810D100BF00BFBE
:10C5F000A97EEA7E120211430846C107C90F00292D
:10C6000002D00120A0750FE00020A0750CE0288862
:10C61000A188884208D1A069002805D02A8B294624
:10C620001A312046A369984770BDF8B504460E46F6
:10C63000207D002820D0B51D2988608981421AD12B
:10C64000288B022817D12068002814D000BF00BF13
:10C65000A97EEA7E120211430846C107C90F0029CC
:10C6600002D00020009001E00120009069462046A1
:10C670002268904700BF00BFF8BD0246002105E0D8
:10C68000505C002801D001207047491C0629F7D3CF
:10C690000020F9E710B504461C216143124A8918AD
:10C6A000084611300621FBF7A2FD1C2161430E4A0A
:10C6B00088181021FBF79BFDFF211C2060430A4ACC
:10C6C000801801741C206043801881760021C943C2
:10C6D0001C20604380180183204601F0D1FB00201C
:10C6E000A100024A505010BDFC250020E02500208A
:10C6F00070B548DF044600BF2546002D06D000BFB8
:10C70000002211462846FCF767FC00BF00BF70BD41
:10C71000014600BF0848006804221040002801D1EB
:10C720000820704700BF002901D10E20F9E7034817
:10C73000407808600020F4E7B0200020782700202F
:10C740003CB5034600BF254800680424204000286B
:10C7500001D108203CBD00BF002B01D10E20F9E71C
:10C76000002A01D10E20F5E71868022806D20C2411
:10C77000186860431A4C2058002801D10720E9E7C7
:10C780005C68186801940090019C0C251868684347
:10C79000134D401900894843201801900C2400983B
:10C7A00060432C46001940890C25009C6C430C4DBD
:10C7B0006419248960430C25009C6C43084D64195E
:10C7C00064680019019CA04201D80720C2E7019CBF
:10C7D0000098546010600020BCE70000B0200020EA
:10C7E00044280020FEB504460D4600BF41480068BD
:10C7F00004210840002801D10820FEBD00BF002C04
:10C8000001D10E20F9E72068022806D20C21206809
:10C81000484339490858002801D10720EDE70C2189
:10C82000206848433449401840890C22216851430C
:10C83000314A8918098948430C22216851432E4AFC
:10C840008918496840186168884201D80720D4E7F0
:10C850006068FFF7E9FA002801D11020CDE70C232A
:10C8600020685843244BC01862684068101A009032
:10C870000C22206850431A46801801890098FBF763
:10C8800065FC002901D00720B7E70C22206850433F
:10C89000194A801801892846FBF76EFC002901D14E
:10C8A000002D01D10720A8E70C2120684843124938
:10C8B000401806890C22216851430F4A891849897A
:10C8C0004E43606847190C212068484311464018C0
:10C8D0004068801901900198874201D907208CE7B0
:10C8E00000202B460246214600900320FDF752FC13
:10C8F00083E70000B02000204428002070B50848DD
:10C900004469601C002807D000F00CF80546294651
:10C910002046FBF71BFC70BD012000074069FAE7C9
:10C920000010001001200007006980B2704700006D
:10C9300010B5FDF771FC002017490880FFF7DEFFF6
:10C94000C41EFFF7EFFF444314480460002014495D
:10C95000086000BF0DE000220C214143114B5A50EA
:10C960000C214143C9180A810C214143C9184A814D
:10C97000401C0228EFD300200B4908700B490860C7
:10C980000B4908600B490860094800680421084306
:10C9900007490860002010BD8C2000209020002056
:10C9A000A02000204428002094200020A420002063
:10C9B000B0200020A8200020FFB581B00C4615460D
:10C9C0001E4600BF3948006804210840002802D1F3
:10C9D000082005B0F0BD00BF002C01D10E20F8E703
:10C9E0000198002801D10E20F3E72068022806D222
:10C9F0000C21206848432E490858002801D10720FF
:10CA0000E7E70C21206848432949401840890C2257
:10CA100021685143264A8918098948430C22216814
:10CA20005143234A8918496840186168884201D8EF
:10CA30000720CEE7002D07D00C21206848431C4971
:10CA400040180089A84201DA0720C2E7A9190C2280
:10CA500020685043164A80180089814201DD072072
:10CA6000B7E70198FFF7E0F9002809D03046FFF753
:10CA7000DBF9002804D06068FFF7D6F9002801D15F
:10CA80001020A6E7606881192A460198FBF788FB09
:10CA900000950C212068484305490F5800220221C7
:10CAA0002046019BB847002093E70000B0200020FB
:10CAB00044280020F8B504460D4600BF41480068F0
:10CAC00004210840002801D10820F8BD00BF002C37
:10CAD00001D10E20F9E7002D01D10E20F5E72068E5
:10CAE000002801D10E20F0E7FFF71CFFA188884243
:10CAF00002DBA088102801DA0720E6E7E08800289A
:10CB00000DD0FFF7FBFE471EFFF70CFF4743E08801
:10CB1000A18848432C4909684018874201D2072060
:10CB2000D3E720798007800F002801D00720CCE7C9
:10CB300026480088022801D10420C6E7234800883F
:10CB40002860214800686860204800880C22504313
:10CB50001F4A8018696841601C4800880C225043B5
:10CB60001B4A21681150A188184800880C225043A4
:10CB7000174A80180181E188144800880C2250432C
:10CB8000134A80184181FFF7CDFE0090FFF7CAFEDF
:10CB9000A188E28851434018471E38460099FBF7A8
:10CBA000EBFA0646FFF7BEFE7043074909684018D6
:10CBB0000549086005480088401C04490880002099
:10CBC00083E70000B0200020902000208C2000206F
:10CBD00044280020F8B504460E4615461F4600BFFF
:10CBE0003248006804210840002801D10820F8BD1F
:10CBF00000BF002E01D10E20F9E7002C01D10E203C
:10CC0000F5E72068022806D20C212068484328490D
:10CC10000858002801D10720E9E70C212068484383
:10CC20002349401840890C2221685143204A891821
:10CC3000098948430C22216851431D4A89184968D3
:10CC400040186168884201D80720D0E7002D07D03E
:10CC50000C2120684843164940180089A84201DA8F
:10CC60000720C4E7E9190C2220685043104A8018B5
:10CC70000089814201DD0720B9E73046FFF7D4F88B
:10CC8000002809D03846FFF7CFF8002804D06068A4
:10CC9000FFF7CAF8002801D11020A8E72B4632463A
:10CCA000214601200097FDF775FAA0E7B02000208B
:10CCB0004428002010B504460F480078002819D0F9
:10CCC0000D480078042815D0022C02D0032C0FD177
:10CCD00002E0FEF7D5FC0CE0084800680821084097
:10CCE000002802D1FEF7ACFC01E0FEF7C9FC00E031
:10CCF00000BF00BF10BD000094200020B020002025
:10CD0000F8B504460E4615461F4600BF3248006877
:10CD100004210840002801D10820F8BD00BF002EE2
:10CD200001D10E20F9E7002C01D10E20F5E7206893
:10CD3000022806D20C2120684843284908580028B8
:10CD400001D10720E9E70C21206848432349401816
:10CD500040890C2221685143204A89180989484397
:10CD60000C22216851431D4A89184968401861689E
:10CD7000884201D80720D0E7002D07D00C21206879
:10CD80004843164940180089A84201DA0720C4E741
:10CD9000E9190C2220685043104A8018008981420A
:10CDA00001DD0720B9E73046FFF73EF8002809D03B
:10CDB0003846FFF739F8002804D06068FFF734F8E8
:10CDC000002801D11020A8E72B4632462146042036
:10CDD0000097FDF7DFF9A0E7B020002044280020ED
:10CDE000F0B58FB006460C4617461D4664200090ED
:10CDF0001C2107A8FBF7FBF96946087F022188433D
:10CE0000801C69460877002008900A900B900C90CF
:10CE10000D9000BF012108A881766846068700BFF3
:10CE20000020019029786846017169784171807904
:10CE300006218843811C68468171807908218843D6
:10CE40000146684681718079102188430146684611
:10CE5000817180794108490068468171142102A8D6
:10CE6000FBF7C5F90EA8029001A80390684604825A
:10CE700000214182848206971599888802AA07A911
:10CE8000149BA2DF0FB0F0BD70B5044625780026D4
:10CE90006078FE280AD1A078052807D1681EC1B2A3
:10CEA000601CFDF77FF8615D884202D0002000F031
:10CEB00067F9E078012804D0072803D021280FD192
:10CEC0000DE011E02946601C00F040F9A67930021F
:10CED000617908430646304600F01AF904E003E0A1
:10CEE000012000F04DF970BD00BF00BFFBE700005E
:10CEF0000149086070470000401501400148406842
:10CF0000704700000015014010B5044603488460D6
:10CF100003211120FBF7CCFA10BD000000150140E1
:10CF200010B5012000040A494860094940394860A9
:10CF30001120FBF79FFA1120FBF7A6FA0120054903
:10CF400008602F20FBF7D6F801200349087010BDB8
:10CF50004013014000100140D420002010B51120E2
:10CF6000012181400E4A116000BF012000040D49DB
:10CF700088600C494039886001200B4948602F20A7
:10CF8000FBF7B8F8012008498860002007490860CD
:10CF90002F20FBF7AFF800200549087010BD0000F6
:10CFA00080E100E04013014000100140C02000205B
:10CFB000D420002030B58FB004460D4600200790E5
:10CFC00000BF6846007F01090901491C68460177D6
:10CFD000007FF021884310306946087700BF00BF0A
:10CFE0006846407F01090901491C68464177407F36
:10CFF000F021884310306946487700BF6846807F3B
:10D0000006218843811C684681771C2108A8FBF70C
:10D01000EEF808A8007810218843411808A801708C
:10D02000002009900B900C9007A80D9000200E9006
:10D03000217868468171032181800020009000BF23
:10D040006846007801090901491C684601700078AA
:10D05000F021884310306946087000BF00BF684661
:10D06000407801090901491C684641704078F02167
:10D07000884310306946487000BF684680780621B2
:10D080008843811C68468170807808218843014666
:10D090006846817080781021884301466846817017
:10D0A000807841084900491C68468170142102A813
:10D0B000FBF79DF801A802906846039001210182C8
:10D0C0000021418214218182608823460C3302AA08
:10D0D00008A9A2DF0FB030BD30B504461088C01CCF
:10D0E000984201D90C2030BD02201588485510887F
:10D0F000401C10801120158848551088401C108055
:10D1000010880C541088401C10800020EBE70000B1
:10D1100001B5FE200C49087004204870AB208870CF
:10D120000220C870684600780871684640784871E7
:10D1300006210548FCF736FF03498871072102489C
:10D14000FEF7FAF908BD00005C280020F8B5054696
:10D150000E46324629460948FCF7F0FC0446082CE6
:10D160000BD000BF2746002F06D000BF002211467B
:10D170003846FBF731FF00BF00BFF8BD1422002086
:10D1800010B50446FE200C490870042048700120A8
:10D190008870C870012C04D1AB200871B020487190
:10D1A00004E0AE2004490871B3204871062102480A
:10D1B000FEF7C2F910BD00005C280020FEB507464E
:10D1C0000E461446B86A002801D10720FEBD002093
:10D1D000019037E0B96A0C22019850430D18A888D5
:10D1E000801C00900098FE2801D90C20EEE70098E2
:10D1F000401C218870542088401C208016202188E3
:10D2000070542088401C208022889119288800F0C2
:10D210002AFE218840182080A88800280EDDA868F2
:10D22000002801D10720D1E7AA8823889819A96886
:10D23000FAF7B6FF2088A988401820800198401C82
:10D24000C0B201902C20C15D01988142C2DC002057
:10D25000BCE7000030B587B0142102A8FAF7C7FF79
:10D2600000BF6846407D01090901491C68464175B7
:10D27000407DF021884310306946487500BF00BFEB
:10D2800002A8807B0009000102A9887302A8807BA4
:10D29000F021884302A9887300BF00BF02A8C07BA9
:10D2A00000090001C87302A8C07BF021884302A9CD
:10D2B000C87300BF00BF6846007E01090901491C10
:10D2C00068460176007EF021884310306946087672
:10D2D00000BF0020029001216846017300200490E5
:10D2E00064216846017502A91348FCF7C5FC044691
:10D2F00000BF2546002D06D000BF0022114628465B
:10D30000FBF76AFE00BF00BF002001900B480190B0
:10D3100001A90B48FCF7ACFB044600BF2546002DD5
:10D3200006D000BF002211462846FBF755FE00BF7D
:10D3300000BF07B030BD0000FC21002033C3010056
:10D340001422002070B50020FCF7ECFD044600BF5D
:10D350002546002D06D000BF002211462846FBF7C7
:10D360003BFE00BF00BFFCF761FD044600BF254641
:10D37000002D06D000BF002211462846FBF72CFEE8
:10D3800000BF00BF3CDF044600BF2546002D06D08D
:10D3900000BF002211462846FBF71EFE00BF00BF5B
:10D3A00070BD000010B504460248047000F0B6F8E5
:10D3B00010BD00009420002070B506460C461546AE
:10D3C00029462046C046C04670BD000001460029DF
:10D3D00001D10E207047024801600020FAE70000EA
:10D3E000E8200020FFB581B00C4616461F46002CF1
:10D3F00002D1072005B0F0BD20468107890F002922
:10D4000001D1012100E00021002901D10720F1E72D
:10D4100009480460094806800948076009490198DD
:10D4200010DF0546002D01D02846E3E7012006491C
:10D43000087016202EDFDDE7E0200020E420002029
:10D44000D8200020B9D30100DC20002001460029AB
:10D4500001D10E207047024801600020FAE7000069
:10D46000EC2000200146C878002801D00720704732
:10D470000020FCE710B502480068FEF719F910BD5E
:10D48000A0200020F8B521480068400840001F494E
:10D4900008601F480078142148431D49091D44189D
:10D4A000E568FFF73FFA014600902846FAF74EFE7E
:10D4B000064618480660FFF735FA0090618849195A
:10D4C000481E0099FAF742FE0746BE4206D10F48B1
:10D4D0000068022108430D49086005E00B48006818
:10D4E00002218843094908600B480068002809D1D7
:10D4F0000648006802210840002803D1022000F0FD
:10D5000039FA02E0002000F035FAF8BDB020002022
:10D5100078270020A02000209820002010B50D487A
:10D520000078002806D0012807D0022808D0032858
:10D530000CD108E000F018F809E000F067F806E008
:10D54000FFF7A0FF03E0FFF795FF00E000BF00BF7B
:10D5500010BD00009420002010B502480068FEF7BE
:10D56000A7F810BDA020002010B5002003490860D6
:10D5700003490860FCF7E6FD10BD0000A420002070
:10D58000A820002070B5FFF7B9F9461EFFF7CAF9C9
:10D5900046433446FFF7C6F905490968491E484322
:10D5A00005460448214602682846FEF789F870BD02
:10D5B000A020002098200020F8B5124800781421FF
:10D5C00048431049091D4418E568FFF7ABF90646C2
:10D5D00061884919A28888183146FAF7B7FD009189
:10D5E000FFF78CF9471EFFF79DF9474300983E1857
:10D5F00061884919A288881803490A683146FEF7EC
:10D600005FF8F8BD782700209C20002010B500F0BE
:10D6100017F910BDF8B5FFF785F90646FFF76EF963
:10D62000471EFFF77FF947433D4631462846FAF744
:10D630008DFD0446FEF73CF8F8BD0000F8B5FFF795
:10D6400071F98408FFF76EF90849096848430546EF
:10D65000FFF754F9471EFFF765F947433E46224658
:10D6600029463046FEF72CF8F8BD0000A020002027
:10D67000F0B591B004460D46207D002819D0002059
:10D68000099000BF08A8007901090901491C08A8F0
:10D6900001710079F0218843103008A9087100BF9A
:10D6A000697B08A84171807906218843801C08A9FC
:10D6B00088711C210AA8FAF79AFD08A8007A0221AD
:10D6C0008843811C08A80172007A10218843217DBB
:10D6D000002901D0012100E00021090110221140A0
:10D6E000084308A9087200200B900D900E90207D31
:10D6F000002801D009A800E000200F900020109021
:10D7000000BF0121684681734949818100BF002023
:10D710000290A97B68460172E97B4172807A0621FA
:10D720008843811C68468172807A082188430146BB
:10D7300068468172807A102188430146684681726A
:10D74000807A4108490068468172297B0191142141
:10D7500004A8FAF74CFD03A8049002A8059007213D
:10D7600068460183002141830721818301A8089035
:10D77000A088A31D04AA0AA9A2DF0646002E02D093
:10D78000304611B0F0BDA86800284DD000BF01217F
:10D79000684681732749818100BF00200290287C60
:10D7A0006946087200BF6846407A01090901684667
:10D7B0004172407AF02188436946487200BF68464A
:10D7C000807A06218843811C68468172807A08210C
:10D7D0008843014668468172807A10218843014659
:10D7E00068468172807A4108490068468172A9685A
:10D7F000FCF7D0F90746142104A8FAF7F8FC03A8AF
:10D80000049002A805906846078300214183018B9C
:10D8100081830890E08822460E3204A9A3DF0646E1
:10D82000002E03D03046ACE70020E0810020A8E7BE
:10D83000A1FE00000829000010B50446002010BD1C
:10D8400070B516480078142148431449091D44183E
:10D85000FFF768F86188884214DAFFF763F8618897
:10D860000D1AFFF75FF88608A388E268D2185019EE
:10D87000226951193246FDF723FFFFF753F8084993
:10D8800008600AE0A588E368581963889A08216946
:10D89000FDF716FF60880249086070BD78270020F8
:10D8A000A820002010B50120FFF77CFD10BD00006E
:10D8B00010B50F48006808210840002814D10D4811
:10D8C0000078142148430B49091D441860880A490F
:10D8D0000988401A60806088002802D1FCF7C0FCEB
:10D8E00001E0FFF7ADFF01E0FEF7ECFB10BD00002B
:10D8F000B020002078270020A820002010B506487E
:10D90000006808210840002803D1012000F032F807
:10D9100001E000F013F810BDB020002010B5FCF7B6
:10D92000D9FB10BD10B5034909788900024A505847
:10D93000804710BD9520002010E1010010B505487A
:10D94000006808218843034908600348007800F014
:10D9500011F810BDB02000209520002010B503491B
:10D9600009788900024A5058804710BD9520002050
:10D9700024E1010010B5044602480470FFF7D2FF0D
:10D9800010BD00009520002010B504462046FFF78A
:10D9900091F92046FBF7E0FD10BD000010B50648E8
:10D9A000006808210840002802D1FFF7B7FF01E016
:10D9B000FFF7C4FF10BD0000B0200020FEB50546F3
:10D9C0000C46FEF7AFFF074639462046FAF7D4FB70
:10D9D0000646FEF7A7FF074639462846FAF7CCFB6E
:10D9E00001900198864204D1601B800808490860B4
:10D9F0000DE0FEF797FF0746FEF794FF0146009003
:10DA00002846FAF7B9FB781A800801490860FEBD7C
:10DA10009C2000200246501A0002000A70470000B5
:10DA200070B504460D480068002812D00B4AA16961
:10DA3000606912689047054600BF2E46002E06D04A
:10DA400000BF002211463046FBF7C6FA00BF00BFF8
:10DA500002E06169A069884770BD0000D020002005
:10DA6000FEB5002001901148046811480768684617
:10DA7000FDF7A0FC0546FEF715FA0646002D05D079
:10DA800001AA21460098FDF779FD01260198FEF7CD
:10DA900053FA002800D00126002E02D03846FCF7A9
:10DAA00009FC002003490870FEBD0000C0200020D2
:10DAB000BC200020D520002010B51420FAF7EEFC81
:10DAC00010BD000010B519490968002902D1174995
:10DAD00008602AE0154A01681268126891420DD860
